:020000040800F2
:100000000090002095560008E74C0008ED4C0008D1
:1000100000000000000000000000000000000000E0
:10002000000000000000000000000000F34C000889
:100030000000000000000000FD4C0008074D000813
:10004000E5560008E5560008E5560008E5560008A4
:10005000E5560008E5560008E5560008E556000894
:10006000E5560008456A0008D5750008E556000801
:10007000E5560008E5560008E5560008E556000874
:10008000E5560008E5560008E5560008194F000837
:10009000E5560008E5560008E5560008E556000854
:1000A000E5560008E5560008E5560008E556000844
:0C00B000BD620008E5560008E556000897
:1000BC0010B5064C2378002B07D1054B002B02D032
:1000CC00044800E000BF0123237010BDCC010020C8
:1000DC000000000030B60008044B10B5002B03D014
:1000EC000349044800E000BF10BDC04600000000FA
:1000FC00D001002030B600080023C25C0133002A76
:10010C00FBD1581E7047000002B4714649084900E3
:10011C00095C49008E4402BC7047C04603B471466A
:10012C00490840004900095E49008E4403BC7047F1
:10013C00002243088B4274D303098B425FD3030A1A
:10014C008B4244D3030B8B4228D3030C8B420DD32D
:10015C00FF22090212BA030C8B4202D312120902BB
:10016C0065D0030B8B4219D300E0090AC30B8B42F9
:10017C0001D3CB03C01A5241830B8B4201D38B03A7
:10018C00C01A5241430B8B4201D34B03C01A52414C
:10019C00030B8B4201D30B03C01A5241C30A8B428F
:1001AC0001D3CB02C01A5241830A8B4201D38B027A
:1001BC00C01A5241430A8B4201D34B02C01A52411E
:1001CC00030A8B4201D30B02C01A5241CDD2C30990
:1001DC008B4201D3CB01C01A524183098B4201D30C
:1001EC008B01C01A524143098B4201D34B01C01AF7
:1001FC00524103098B4201D30B01C01A5241C3086F
:10020C008B4201D3CB00C01A524183088B4201D3DD
:10021C008B00C01A524143088B4201D34B00C01AC9
:10022C005241411A00D20146524110467047FFE735
:10023C0001B5002000F0F0F802BDC0460029F7D04F
:10024C0076E7704703460B437FD4002243088B426A
:10025C0074D303098B425FD3030A8B4244D3030B41
:10026C008B4228D3030C8B420DD3FF22090212BA06
:10027C00030C8B4202D31212090265D0030B8B4282
:10028C0019D300E0090AC30B8B4201D3CB03C01A6C
:10029C005241830B8B4201D38B03C01A5241430B47
:1002AC008B4201D34B03C01A5241030B8B4201D337
:1002BC000B03C01A5241C30A8B4201D3CB02C01AA2
:1002CC005241830A8B4201D38B02C01A5241430A1A
:1002DC008B4201D34B02C01A5241030A8B4201D309
:1002EC000B02C01A5241CDD2C3098B4201D3CB01B0
:1002FC00C01A524183098B4201D38B01C01A52415F
:10030C0043098B4201D34B01C01A524103098B4262
:10031C0001D30B01C01A5241C3088B4201D3CB004D
:10032C00C01A524183088B4201D38B00C01A524130
:10033C0043088B4201D34B00C01A5241411A00D2E0
:10034C0001465241104670475DE0CA0F00D0494249
:10035C00031000D34042534000229C4603098B42B9
:10036C002DD3030A8B4212D3FC22890112BA030A41
:10037C008B420CD3890192118B4208D389019211C3
:10038C008B4204D389013AD0921100E08909C30948
:10039C008B4201D3CB01C01A524183098B4201D34A
:1003AC008B01C01A524143098B4201D34B01C01A35
:1003BC00524103098B4201D30B01C01A5241C308AD
:1003CC008B4201D3CB00C01A524183088B4201D31C
:1003DC008B00C01A5241D9D243088B4201D34B0037
:1003EC00C01A5241411A00D20146634652415B1079
:1003FC00104601D34042002B00D54942704763465A
:10040C005B1000D3404201B5002000F005F802BD9E
:10041C000029F8D016E770477047C0468446100094
:10042C0062468C461900634600E0C0461FB500F0DA
:10043C0029FF002801D40021C8421FBD10B500F0CF
:10044C0079FE4042013010BD10B500F01BFF0028B2
:10045C0001DB002010BD012010BDC04610B500F01E
:10046C0011FF002801DD002010BD012010BDC04689
:10047C0010B500F0A1FE002801DC002010BD012009
:10048C0010BDC04610B500F097FE002801DA002020
:10049C0010BD012010BDC046F0B54F464646D646AD
:1004AC000400C0B51F000B0310004E005B0ACD0FFB
:1004BC00610F7A001943E3003C03FF0FBC46640A4A
:1004CC00470F2743760D520DC000B9468046B71A28
:1004DC00654500D19BE0002F00DC84E0002A00D1B0
:1004EC00BEE0C84A964200D124E180224C46120458
:1004FC001443A146382F00DD67E11F2F00DDD6E144
:10050C0020224C46D21B9440A2464446FC4020007C
:10051C005446044340469040421E90414A46FA409D
:10052C000443891A1C1BA342924152428B1A9A46CD
:10053C0053461B0200D4D4E053465A02530A9A463F
:10054C005346002B00D104E1504601F0EDFD0300B1
:10055C00083B20222000D21A5146D040994002007C
:10056C009C400A43B34200DA02E19B1B591C1F2931
:10057C0000DDA7E02023100026005B1A9C40984069
:10058C00CE40CA40631E9C41304392460026044331
:10059C00630709D00F232340042B05D0231DA3424E
:1005AC00A4416442A2441C0053461B0200D49BE0AD
:1005BC00944B01369E4200D1B8E053469249E40870
:1005CC000B4019005B07234372054C02240B520DA0
:1005DC001205ED0722432A4318001100E0BCBA466D
:1005EC00B146A846F0BD002F48D0971B002E00D076
:1005FC000EE10C001C4300D1B7E17C1E012F00D191
:10060C0026E2804DAF4200D1D5E1270007E1002F53
:10061C0000DCB2E0002A47D07A4A964200D189E049
:10062C0080224C4612041443A146382F6BDC1F2F3A
:10063C0000DC6EE13A004846203AD0408446202F38
:10064C0007D040224846D21B90400200404610433F
:10065C0080464046421E904162460400144357E0D7
:10066C004A46024300D103E17A1E012F00D193E1E7
:10067C00644CA74200D18AE117003BE7634C721C23
:10068C00224200D0E0E00A001A43002E00D074E1B0
:10069C00002A00D1D0E14A46024300D0E3E14A07E8
:1006AC00DB081343C90829E04A46024300D17DE127
:1006BC007A1E012F00D1E0E0524CA74200D166E136
:1006CC001700B2E710001F3BD840202903D040236D
:1006DC005B1A9A401443631E9C41002300269A46E1
:1006EC000443630700D055E75246E308520713430F
:1006FC0052463700D108434A97421FD009037A0566
:10070C000C0B520D64E742464C461443621E944156
:10071C00E4189C429241524292468A4453461B0230
:10072C00DFD5384B01369E4200D0B3E032000024B6
:10073C0000234DE74A07DB081343C9081A000A4394
:10074C0000D100E2802424030C4324032D4A240B03
:10075C003EE7200001F0E8FC030018331F2B00DCFF
:10076C00F7E62200083882400024B34200DBFCE6A6
:10077C00F61A254B1A4092460AE7002F2BD0971BEE
:10078C00002E00D1B8E01F4CA24200D11CE1802405
:10079C0024042143382F00DD1EE11F2F00DD9EE1D4
:1007AC0020260C00F61B1800B340B440F8405E1E27
:1007BC00B341F94004431C438944444444459B41A0
:1007CC005B424B449A461600A8E742464C461443FB
:1007DC00621E9441A6E60D4C721C224200D0A8E089
:1007EC000A001A43002E00D00AE1002A00D15EE173
:1007FC004A46024300D061E14A07DB081343C908AB
:10080C007CE7C046FF070000FFFF7FFFFE070000EC
:10081C00CF4CA24200D1CEE0802424042143382FB7
:10082C005BDC1F2F00DDDCE020250C00ED1B1E0027
:10083C00AB40AC40FE405D1EAB413443F9401C4321
:10084C004B465B1A99464CE04A461C1A881AA3423E
:10085C0092415242924602005046121A924612029D
:10086C0078D45346234300D06AE60021002545E79F
:10087C004A07DB081343C9083DE71C189C429B41FF
:10088C0049448A465B429A44534601261B0200D4D3
:10089C0027E702265246AF4B01211A401300214094
:1008AC0062080A43DC075B089A46144370E63A0078
:1008BC004C46203AD440A446202F07D0402248462C
:1008CC00D21B904002004046104380464046421ED8
:1008DC00904162460400144324E619430C00631E45
:1008EC009C4143461C1BA0459B4149465B42CB1A8D
:1008FC009A46654616001BE60C001C4300D1C7E067
:10090C007C1E012F00D1F9E0914EB7425CD027003C
:10091C0040E720224C464046D21B9440F84004430A
:10092C0040469040421E90414A46FA400443891882
:10093C00EEE6874CA24200D1F9E6181898429B418A
:10094C0049445B42CB18DC0740085B089A4616000A
:10095C000443C6E64246D41AA04580414B46404269
:10096C00591A0B1A9A466546EAE54B464A46C008A0
:10097C005B0765460343D108BDE6002A00D08EE034
:10098C004B46034317D1802100250903DAE64A07B9
:10099C00DB081343C908D1E61C1A4A46A3429B4103
:1009AC00891A5B42CB1A9A460126C1E54A07DB0835
:1009BC001343C9089FE64346D8084B464A465B0793
:1009CC0065460343D108B9E64346D8084B464A4628
:1009DC005B070343D108B1E619430C00631E9C412D
:1009EC00EBE63C000D00203CE540202F03D04024DA
:1009FC00E41BA1400B431C00631E9C412C4370E77D
:100A0C00002AE1D04A460243C1D04A07DB0813430F
:100A1C008022C9081203114208D04846C408144267
:100A2C0004D143462100DB08420713435A0FDB0075
:100A3C005207DB08134381E64B46034300D114E70E
:100A4C004B464A46C0085B0765460343D10855E64A
:100A5C00C41AA04580414B464042591A0B1A9A467B
:100A6C006546012664E51C1A4A46A34280418A1A4F
:100A7C004042121A9246120249D54246D41AA04557
:100A8C0080414B464042591A0B1A9A4665467FE5FF
:100A9C004B464A46C0085B070343D1082BE64A463F
:100AAC00DB08024338D14A071343C90846E64B46D4
:100ABC004A46C0085B070343D1081FE61C189C423A
:100ACC009B4149448A465B429A4453461B0200D4DC
:100ADC0007E652461F4B01261A40924601E63C009F
:100AEC000E00203CE640202F03D04024E41BA14004
:100AFC000B431C00631E9C4134435EE6434483421B
:100B0C00804149448A4640421C008244BCE653461C
:100B1C00234300D1A9E6E4E54A0713438022C90820
:100B2C001203114209D04846C408144205D1434669
:100B3C0065462100DB08420713435A0FDB00DB0834
:100B4C0052071343FAE50023014A1C0040E5C04656
:100B5C00FF070000FFFF7FFFF0B557464E464546A6
:100B6C00DE46E0B50C031F004B00814692460500A3
:100B7C0085B0240B5B0DCE0F002B00D152E1D24A75
:100B8C00934200D16EE1420FE40014438022120420
:100B9C0022439046CD4AC50093469B440023994678
:100BAC0000933C037B005046240B5B0DFF0F002B86
:100BBC0000D11AE1C44A934200D15EE1420FE40035
:100BCC002243802424041443C04AC10094465A464C
:100BDC006344D31A9B46002033007B409A464B4615
:100BEC000F2B27D8BA4A9B00D3589F46B246009B7E
:100BFC00022B16D0032B00D187E2012B00D0D5E0BD
:100C0C000023002200251B0513435246D207134331
:100C1C002800190005B0F0BCBB46B246A946A04658
:100C2C00F0BD00220025A84BEDE7BA46A0460D000A
:100C3C000090DCE7444500D2C4E100D1BFE10123C0
:100C4C005B429C462E0040460025E34423020C0EDA
:100C5C001C431B0C994623040A021F0C49460092A4
:100C6C000197FFF7EBFA02007A430B04310C804634
:100C7C0019438A4207D901235B429C460919E04477
:100C8C008C4200D801E2881A4946FFF7D7FA019A3C
:100C9C00360442430904360C03000E43B24204D915
:100CAC003619013BB44200D8E9E1B01A4246009E25
:100CBC0012041A43330C1F00110C904602931304B8
:100CCC003204160C32001B0C5A4303967B434E43E2
:100CDC007943170CBC469B1963449E4203D980266A
:100CEC007602B44661441E0C711816041B04360CB3
:100CFC009E19884202D312D1B54210D243465A1ED5
:100D0C00009B9C4665441F009D429B415B421B1906
:100D1C00C018844200D29EE100D199E19046AE1BEE
:100D2C00B542AD41401A6D42401B844200D1D2E124
:100D3C004946FFF783FA019A0B044243310C050034
:100D4C0019438A4200D96CE1881A4946FFF776FAB2
:100D5C00019A360442430904360C03000E43B24296
:100D6C0000D953E10398B61A02002D041D43029FCB
:100D7C002B041B0C5A437B439C46290C4843130CF5
:100D8C00844463447943984203D9802040028446CA
:100D9C006144180C12041B04120C40189B18864258
:100DAC0000D200E100D1FBE001231D43494B5B4421
:100DBC00002B00DCAAE06A0700D03DE1E9084246BE
:100DCC00D20106D54246444B1A4080239046DB00A4
:100DDC005B44424A934200DD23E742465B055507DC
:100DEC0052020D43120B5B0D0DE75146214300D10E
:100DFC007CE0002C00D1FBE0200001F095F9020012
:100E0C000B3A1D239B1A52460100DA40534608390F
:100E1C008B408C4019001443314B58449B468344FF
:100E2C000020D9E603002343984644D0002C00D17F
:100E3C00CFE0200001F078F9010002000B391D23EE
:100E4C005B1A49461000D940083884400B004D46C7
:100E5C00234398468540234B9B1A9B460023994677
:100E6C0000939EE60200224390461DD108229B4629
:100E7C00022300259146009393E65146214309D164
:100E8C0002234A461A43184B91469C4600240220E2
:100E9C00E344A1E603234A461A43134B91469C466E
:100EAC0051460320E34497E60C229B460323A046BD
:100EBC009146009375E60423994600239B46013323
:100ECC00002500936DE6C046FF07000001FCFFFF04
:100EDC0078B60008FF030000FFFFFFFEFE070000CE
:100EEC00F30300000DFCFFFF01F8FFFF4A4601234E
:100EFC001A439146002401206EE6002380229A4674
:100F0C000025884B12037EE601256D420122D21A80
:100F1C00382A00DD74E61F2A00DCBDE01F2149429F
:100F2C00CB1A4146D9400B00202A04D041467E4AB8
:100F3C005A4491400D4329004A1E914119430723FD
:100F4C001D0000220D400B4200D1D0E00F220023E7
:100F5C000A40042A00D1C7E00A1D8A42894149424D
:100F6C005B1811001A0200D4BEE0012300220025F8
:100F7C0049E6802243461203134208D0144206D19C
:100F8C0022431203BA460D00664B120B3BE680223D
:100F9C00434612031A431203B246624B120B32E65B
:100FAC00002B00D102E7A6196A1EA64200D289E0E6
:100FBC00864200D29FE000D1AFE01500F4E6A942D2
:100FCC0000D93CE64346DE0758086B081E43ED0784
:100FDC003CE601F0A9F801000200153120321C2971
:100FEC0000DC2CE74B46083883400025984632E756
:100FFC0001F09AF803001A00153220301C2A00DC8C
:10100C00FFE65446083B00219C4005E73619013B9E
:10101C00B44200D9A6E6B24200D8A3E6831E361924
:10102C00A0E60919013D8C4200D98DE68A4200D810
:10103C008AE6851E091987E60F222A40042A00D168
:10104C00BCE6291DA942AD416D42C908A844B6E6CB
:10105C00AF4200D962E6814204D800D05EE6AE42CF
:10106C0000D85BE602235B429C46009BE0449C4616
:10107C0065449D429B415B421B19C0184FE6B2422E
:10108C0000D812E6831E36190FE68A4200D8FAE51C
:10109C00831E98460919F6E5244B28005B4441460B
:1010AC009D409940D0406B1E9D41434601432943CE
:1010BC00D3404A0700D155E70F220A40042A00D03A
:1010CC004AE74FE71500864200D06DE6009A9A4237
:1010DC0000D069E66AE6164B5B44002B00DC13E794
:1010EC0001250021A8446AE65D075B021A0BC908BA
:1010FC0000230D4387E50099023D4A008A42BF4117
:10110C007F423F19F6190092DDE780224346120315
:10111C001A431203034B120B75E500999942EAD35B
:10112C001500D3E7FF0700003E0400001E0400007A
:10113C00FF030000F0B54E464546DE465746904646
:10114C00E0B517001A03120B0500844619480E036C
:10115C004C0091465A00DB0F9B46360B640DC90FB1
:10116C00520D844219D0824210D0012094420ED1EB
:10117C004E450CD10120C44509D1594517D0002C3E
:10118C0005D130002843431E984100E00120F0BCFB
:10119C00BB46B246A946A046F0BD330001202B4306
:1011AC00F5D1A242F3D14B463B43F0D1E2E700200C
:1011BC00EDE7C046FF070000F0B54746CE460400F9
:1011CC00180016001B031B0B2D4D4A00994680B5C9
:1011DC0043000F03A446B0463F0B520DC90F5B0DE5
:1011EC00C00FAA4221D0AB4213D0002A22D13C43DB
:1011FC00002B02D14D462E4322D0002C10D0814220
:10120C0022D00220013908400138C0BCB946B04692
:10121C00F0BD4D462E4329D1002AF0D13C43EED1EE
:10122C000028F2D101204042EFE73D0025431DD1BB
:10123C009342EED0002BE2D14C462643DFD1E0E7BF
:10124C000020002CE1D0DCE79A420ADCE8DB4F45B9
:10125C00D7D80ED000204F45D7D20029E2D00800B5
:10126C00D3E74342584140000138CEE702204042C8
:10127C00CBE7C445C5D80020C445C6D2EDE7C0466F
:10128C00FF070000F0B54746CE46040018001600D4
:10129C001B031B0B2C4D4A00994680B543000F03D2
:1012AC00A446B0463F0B520DC90F5B0DC00FAA42AE
:1012BC000DD0AB4210D0002A27D13C43002B11D1CA
:1012CC004D462E430ED10020002C15D00EE03D00D3
:1012DC00254310D1934218D14D462E430BD1002AF1
:1012EC0002D13C43002C0BD0814214D00220013996
:1012FC000840013800E00220C0BCB946B046F0BD41
:10130C000028F9D101204042F6E7002BECD14C46E5
:10131C002643E9D1EAE79A4204DD434258414000B2
:10132C000138E9E79A42EBDB4F45DFD806D00020C5
:10133C004F45E1D20029E5D00800DDE7C445D5D8FA
:10134C000020C445D8D2F5E7FF070000F0B54546AC
:10135C00DE4657464E46E0B51F000B031B0B9B4663
:10136C004D00CB0F04009146984687B06D0D00D10F
:10137C00CDE1CE4B9D4200D1E9E15A46430FD2005C
:10138C001343802212041A43C3009A46C84B934657
:10139C009C4600230026654400933C037B00484692
:1013AC00240B5B0DFF0F002B00D189E1BF4A934248
:1013BC0019D0420FE4002243802424041443BC4A75
:1013CC0000219446424663445B190193019B7A4089
:1013DC000133C000D2B202930A2E1CDD3A000B2E50
:1013EC005ED0474656E04946B04B2143EB1801937B
:1013FC0000292AD18020022200012B0084461643AA
:10140C00424663447A40D2B202930A2E00DD31E2A6
:10141C00002000240221022E26DC013E012E52D88F
:10142C0002294CD0012900D018E10023002400250A
:10143C001B052343D20713432800190007B0F0BC47
:10144C00BB46B246A946A046F0BD80210322090145
:10145C002B008C461643424663447A40D2B2029328
:10146C000A2E00DD28E203210125B540AC46A62654
:10147C006346F600354033420BD19026B60033421A
:10148C0018D1B93EFF3E1E421DD0A34682460091A4
:10149C0000E0170000993A00022910D05C46504633
:1014AC000329BFD180231B031C43240305007F4B5E
:1014BC00240BBDE7802400227C4B2403B8E70024D6
:1014CC0000257A4BB4E753461E04360C1F0C330030
:1014DC00010C0004000C4343984603007B439946DF
:1014EC0033004B439C4643460D001B0C9A467D43F0
:1014FC00CC44D4440095E14504D980235B02994641
:10150C004D44009563461B0C1D0063461B049C4612
:10151C0043461B041B0C9846634643440393230C1D
:10152C00984633002404240C63439C4623007B43DD
:10153C00994643465E435F434E446346B2461E0C97
:10154C005644B14503D980235B0299464F44330C72
:10155C0099463B004B4405936346AC461F043F0C35
:10156C003604F619B444634604935B461B0C9C4644
:10157C005B461F043F0C3B00434399466346434381
:10158C009A464B4660461B0C9B4648437943514454
:10159C0059448A4503D980235B029A4650440B0C6C
:1015AC009A464B461B041B0C99463B0063430904AB
:1015BC0045464944994663465C436B439C464B46BF
:1015CC001B0C98466F433F1947445044BC4203D907
:1015DC0080235B029846C444049B009D9846454476
:1015EC00B542B641734298464B461E04059B3C04DB
:1015FC009946360CA4194C44A14683466E18C14436
:10160C008E428941CB445D4649426D189C42A441AF
:10161C00C1459B41834580418D4289415B42644277
:10162C001C434042039B4942014370023F0C184348
:10163C00E419471EB84164186444F60D6102304346
:10164C00EC0D6E020C433043C90100D4F1E00121D2
:10165C00430801400B43E007184364081549029BFB
:10166C008C466344002B00DC97E0410709D00F2126
:10167C000140042905D0011D8142804140422418BB
:10168C000800E10106D58021C9008C460A4B1C409C
:10169C00029B634409498B4200DD10E76107C508D2
:1016AC0064025B050D43240B5B0DC1E6FF070000D4
:1016BC0001FCFFFFFF030000FFFFFFFEFE07000021
:1016CC004B46234359D0002C00D1A3E0200000F05E
:1016DC002BFD010003000B391D22521A494618003C
:1016EC00D1404A4608388240844010000C43744A6A
:1016FC00EB1A9446424663440193019B7A400133B2
:10170C000021D2B202930A2E00DD67E683E65B4627
:10171C0003439A462AD05B46002B6DD0584600F006
:10172C0003FD010003000B391D22521A2100180081
:10173C005D46D140083885400A0084402A439346D0
:10174C00A2465F4D0026ED1A0023009325E65B466A
:10175C0003439A4605D100239B4602330826009387
:10176C001BE6032382460C26009316E600239B46B9
:10177C0001330426002500930FE642460133019500
:10178C001E43019B7A400133002400200121D2B278
:10179C0002930A2E00DD21E63DE60121C91A382903
:1017AC0000DD42E61F2947DD1F2625007642F31A8D
:1017BC00DD402B00202905D04249029D8C46654412
:1017CC00AC402043411E8841184307231D000024D0
:1017DC00054003424AD00F2300240340042B42D07F
:1017EC00031D8342804140422418180023023AD53D
:1017FC000123002400251BE600F096FC01000300E9
:10180C00153120331C298FDD083800228440924684
:10181C00A34696E700F088FC010003001531203345
:10182C001C2900DC58E702004C46083A0020944082
:10183C005DE7019B029311E7234B26009C460300B6
:10184C00029DCB406544AE401E430300AB40581E86
:10185C00834130001843CC404307C7D00F230340CB
:10186C00042BBDD1C2E765076402240BC00800231A
:10187C000543DDE5002502230F2E0CD180245B46A9
:10188C00240323420ED021420CD10C4324033A00F2
:10189C000E4B240BCCE50B2E00D0A2E58B46AA46B2
:1018AC000093F7E580245B4624031C432403424643
:1018BC005546064B240BBBE54D4621000323DBE7C5
:1018CC000DFCFFFF3E0400001E040000FF0700009B
:1018DC00F0B557464E464546DE46E0B50D000400D1
:1018EC00190010002B035B0A620F1A43E3000C0370
:1018FC00640A470F2743D04C6E00914683B04A00D0
:10190C00C0009846A246760DED0F520DC90F0190FE
:10191C00A24200D1B9E0012461408B468D4200D136
:10192C008DE0B41AA446002C00DCB7E0002A00D1EC
:10193C00CBE0C14A964200D186E1802212041743C3
:10194C006246382A00DDA4E11F2A00DD1DE2614653
:10195C0020223C00521A010090409440421E9041BB
:10196C006246A0466446D7404A46E1404446D21BF4
:10197C0091460C4304431C1BA34292414B465242DA
:10198C009B1A9A4653461B0200D42BE153465A022B
:10199C00530A9A465346002B00D166E1504600F09C
:1019AC00C3FB0300083B20222000D21A5146D04032
:1019BC00994002009C400A439E4200DD64E19B1B5F
:1019CC00591C1F2900DDFEE02023100026005B1AA5
:1019DC009C409840CE40CA40631E9C413043924686
:1019EC0000260443630709D00F232340042B05D0A2
:1019FC00231DA342A4416442A2441C0053461B0273
:101A0C0000D4F2E08C4B01369E4200D10FE15346DC
:101A1C008A49E4080B4019005B07234372054C020A
:101A2C00240B520D12052243ED072A431800110016
:101A3C0003B0F0BCBB46B246A946A046F0BDB41AF2
:101A4C00A446002C59DD002A00D1B0E0564500D147
:101A5C00FAE08022120417436246382A00DDD4E0F3
:101A6C001F2A00DCC0E13900203AD1406246202A0E
:101A7C0006D064464022121B3C009440044301945F
:101A8C00019C621E94410C43C3E03C0004432BD0E8
:101A9C008B468D422ED06A4CA446B4446446002C2E
:101AAC005FD0941BA446002E00D020E14C461C4372
:101ABC0000D1C7E161464C1E012900D123E25E4DE5
:101ACC00AC4500D1D8E1A4461AE13A00024300D15A
:101ADC00E4E02200013A012C00D1C3E156498C42CA
:101AEC0000D1B1E094462BE7012461408B468D4236
:101AFC0000D016E752498C46B4446446002C00D101
:101B0C00D3E0911B8C46002E00D15EE14A498A42FB
:101B1C0000D1BEE180214C4609040C43A14661462C
:101B2C00382900DDBAE11F2900DD27E22024641AE0
:101B3C004946A1401E0088466146A340CE4041461E
:101B4C005C1EA341314319430C0063464946D940FE
:101B5C007F18241884429B415B429A461600BA4473
:101B6C005DE0384C721C224200D0DFE04A461A433A
:101B7C00002E00D05CE1002A00D1CFE13A000243F4
:101B8C0000D17FE11C1A4A46A3428941D21B49422B
:101B9C00521A9246120200D40AE2C41AA0428041A0
:101BAC004B464042FF1A3B1A9A465D461AE73A00EA
:101BBC00024373D02200013A012C00D1CBE05445F2
:101BCC0042D0944648E710001F3BD840202903D050
:101BDC0040235B1A9A401443631E9C410023002649
:101BEC009A460443630700D0FEE65246E3085207C8
:101BFC0013435246B446D2080F498C452AD01203DF
:101C0C00140B62465205520D0CE73C000443621E55
:101C1C009441E4189C42924152424A4492465346A3
:101C2C001B02DFD5044B01369E4200D0A0E03200EF
:101C3C0000240023F6E6C046FF070000FFFF7FFFED
:101C4C0001F8FFFFFE070000DB084A46520713436A
:101C5C004A46D2081900114300D1B5E1802424036F
:101C6C0014432403D54A240BDCE6200000F05CFA74
:101C7C00030018331F2B00DC95E622000838824045
:101C8C0000249E4200DC9AE6F61ACD4B1A4092468E
:101C9C00A8E63C000443621E94416CE64A46DB080D
:101CAC00520713434A46D208A6E7C64C721C22427E
:101CBC0000D0ACE04A461A43002E00D005E1002AC1
:101CCC0000D156E13A00024300D1DBE01C189C42E3
:101CDC009B414F44BA465B429A4453461B0200D484
:101CEC0080E75246B64B01261A4092467AE7B34C2F
:101CFC00A24200D1C0E080244D4624042543A946CD
:101D0C006446382C53DC61461F2C00DDCDE02025C9
:101D1C001E002D1B4C46AB40AC40CE405D1EAB4173
:101D2C00344323434C46CC403F1B45E04A461C1AE7
:101D3C00D11BA3429241524292460A005146521A7A
:101D4C009246120200D583E05346234300D021E68D
:101D5C000022002553E71C189C429B414F44BA4675
:101D6C005B429A44534601261B0200D43AE70226F2
:101D7C005246934B01211A401300214062080A433A
:101D8C00DC075B089A4614432CE63900203AD14014
:101D9C006246202A06D064464022121B3C00944026
:101DAC0004430194019C621E94410C43E3E54946B3
:101DBC0019430B005C1EA341C41AA0429B415B4219
:101DCC00FB1A9A465D461600DCE54946194300D1DC
:101DDC00AEE0614664460139012C00D1E0E0774C5D
:101DEC00A44556D08C469AE6614620223C00521AF5
:101DFC00944001009040A0466446421E90416246C9
:101E0C00E1404446D7400C430443B94401E76B49D5
:101E1C008A4200D10CE7181898429B414F445B4210
:101E2C00FB18DC0740085B089A4616000443D9E609
:101E3C00002A00D081E03B0003431DD18022002505
:101E4C0012030BE7C0087B075D460343FA08D3E691
:101E5C00C41AA04280414B464042FF1A3B1A9A4694
:101E6C005D4697E51C1A4A46A3429B41D71B5B4231
:101E7C00FB1A9A46012685E5C0087B075D4603439D
:101E8C00FA08E7E64A46DB08520713434A46D208EB
:101E9C00B5E6C0087B070343FA08DBE6494619435D
:101EAC000B00591E8B411C0053E64D46203CE5406F
:101EBC00202905D04024641A4946A1400B4398467A
:101ECC0043465C1EA3412B4376E7002AE1D03A003F
:101EDC00DB08024300D1B8E64A465207802413437C
:101EEC004A462403D208224207D0FE08264204D1D7
:101EFC005D463200C3087F073B43590FDB0049079F
:101F0C00DB080B43A6E6C41AA04280414B46404274
:101F1C00FF1A3B1A9A465D46012633E53B00034304
:101F2C0000D115E7C0087B075D460343FA0866E657
:101F3C00C0087B070343FA085EE63A00DB0802435D
:101F4C0000D182E64A465207802413434A462403B2
:101F5C00D208224207D0FE08264204D15D46320048
:101F6C00C3087F073B43590FDB00DB0849070B43D2
:101F7C0070E6C0087B070343FA0840E64C4620395C
:101F8C00CC406146202906D066464021891B4E462E
:101F9C008E40334398464346591E8B411C43D8E52B
:101FAC001C18844280414F44BA4640428244D9E6D0
:101FBC005346234300D1CBE614E6C046FF0700008E
:101FCC00FFFF7FFFFE0700000023014A1C0029E5EC
:101FDC00FF07000070B505000C481C0316005B00E1
:101FEC000A034900120B490D240B5B0D814208D0EA
:101FFC00064A0020934203D120003043431E9841EF
:10200C0070BD01202A43FBD1F2E7C046FF07000058
:10201C000A0030B5134C530009030500090B0020CE
:10202C005B0DD20FA34204DD0F48834202DD0F4B40
:10203C00D01830BD8020400301430D48C01A1F2822
:10204C0008DD0C48C31AD9400B005842002AF0D1C5
:10205C001800EEE7084CC540A446634499400B00B9
:10206C002B43F2E7FE0300001D040000FFFFFF7F7F
:10207C003304000013040000EDFBFFFF70B50028D3
:10208C0016D0C317C5185D40C40F280000F04CF8DB
:10209C00114B1B1A0A2816DC02002E001532964032
:1020AC000B22121AD5405B052D032D0B5B0D03E0A3
:1020BC0000240023002500261B052B43E4072343A3
:1020CC003000190070BD0B3885405B052D030026D0
:1020DC002D0B5B0DF0E7C0461E04000010B5041E6E
:1020EC0010D000F021F80F4B1B1A0A2811DC0B2220
:1020FC002100121AD14015300A035B058440120BE3
:10210C005B0D01E0002300221B0513432000190086
:10211C0010BD22000B3882405B0512030024120B09
:10212C005B0DF1E71E0400001C2101231B049842E7
:10213C0001D3000C10391B0A984201D3000A08394C
:10214C001B09984201D30009043902A2105C401803
:10215C007047C046040302020101010100000000A7
:10216C0000000000F0B51E00002314008BB09E424E
:10217C0004DA8021090673181E002D23129A149F6D
:10218C001370202303229F43462F07D03B00453B6F
:10219C0059424B411099013ACB18109309AB049357
:1021AC0008AB0393139B00920293109B22000193A4
:1021BC00330000F081FE0500472F02D1119BDB0795
:1021CC0028D5109BEB180793462F14D12B78302B66
:1021DC000CD10022002320003100FEF72FF900283B
:1021EC0004D10123109A9B1A139A1360139B079A1C
:1021FC001B68D31807930022002320003100FEF740
:10220C001DF9002801D0079B09933022099B0799DF
:10221C008B4206D32800099B159A5B1B13600BB0ED
:10222C00F0BD591C09911A70F0E7F0B5831C87B00A
:10223C00039305000C002B230270002901DA4C4299
:10224C0002336B70092C2FDD0A2704ABDE1D200036
:10225C0039000196FEF7DCF8013E30312000317078
:10226C0039000294FDF7EEFF029B0400632BEEDCB9
:10227C00019B30349A1E13000399147004A8073084
:10228C0098420CD80023824204D804AA09339B1824
:10229C00019A9B1A039AD318581B07B0F0BD1878F3
:1022AC00013308700131E9E730233034AB70EC7046
:1022BC002B1DF1E7F0B595B00C0008921A9D09930F
:1022CC00070000F0E5FC036818000C93FDF714FF01
:1022DC0000231293237E07220A9323680D900B93FD
:1022EC000B992B68C90547D59B1893431A000832E4
:1022FC002A601E685D6832002B00A264E364012230
:10230C006B005B080E933000AB4B0E995242FFF7FB
:10231C0061FE002832D101223000A74B0E995242A7
:10232C00FEF79CF8002829D1002200233000290058
:10233C00FEF78AF8002803D023002D2243331A70AD
:10234C000A9B9E4D472B00D99D4D03230B9A23616D
:10235C0001339A43002322600B93099B21000093C5
:10236C003800089B13AA00F0FBF9013000D0A3E061
:10237C000120404215B0F0BD0733B6E732002B0008
:10238C0030002900FFF726FE00280BD0002D03DAC1
:10239C0023002D2243331A700A9B8A4D472BD4D924
:1023AC00894DD2E720220A99636891430E915A1CF9
:1023BC004AD10733636080230B9ADB00134300225E
:1023CC00069212AA05920A9A2360049211AA039209
:1023DC00232208A9019363685218029200933200D9
:1023EC002B003800FFF7BEFE0E9B0500472B09D1D2
:1023FC00119BDA1C02DB6268934249DD0A9B023BAB
:10240C00DBB20A930A9B1199652B24D820001A0081
:10241C00013950301191FFF708FF129A0B901318E5
:10242C002361012A02DC2268D20701D50133236122
:10243C00232308AA9B181B78002B00D18DE72300BF
:10244C002D2243331A7088E70E9A472AB3D1002BFA
:10245C00B1D10133AEE70A9B662B1BD1636800290F
:10246C0009DD2161002B02D12268D2070BD5013383
:10247C005B18236107E0002B03D101222168114274
:10248C0000D09A1C2261119BA36500230B93CFE70C
:10249C0067230A931199129B994206DB23682161E9
:1024AC00DB07F0D501312161EDE70122002901DCC8
:1024BC009218521A9B18DCE72268530508D423693A
:1024CC002A0038000899099DA84701302AD14FE706
:1024DC000A9B652B00D8ECE0A06CE16C0022002379
:1024EC00FDF7ACFF002834D001233800374A089997
:1024FC00099DA847013000D13AE7119A129B9A42E4
:10250C0002DB2368DB070DD5099D38000D9B0C9A67
:10251C000899A8470025013000D129E7129B013BFF
:10252C00AB420ADC23689B0700D516E1139BE068DD
:10253C00984200DB1EE718001CE72200012338003C
:10254C000899099E1A32B047013000D110E70135C5
:10255C00E4E7119B002B3BDC012338001B4A089954
:10256C00099EB047013000D102E7119B129A134328
:10257C0002D12368DB07D5D50D9B38000C9A08993E
:10258C00099EB0470023013000D1F1E60A93119B5C
:10259C000A9A5B42934201DC129B91E722000123D1
:1025AC0038000899099E1A32B047013000D1DFE695
:1025BC000A9B0133EAE7C046FFFFEF7FB8B600087D
:1025CC00BCB60008C0B60008C4B60008C8B60008FF
:1025DC00129AA36D0A929A4200DD0A930A9B002B71
:1025EC003DDC00230E930A9BDB43DB170F93A36D9B
:1025FC000A9A0B930F9B13400B9AD31A0E9A934281
:10260C0036DC119A129B9A4240DB2368DB073DD4DF
:10261C00129E119A0B9BF31AB61A9E4200DD1E00F5
:10262C00002E3CDC00230A93F343DB170B93119A27
:10263C00129B9B1A0B9A32409B1A0A9A934200DC0B
:10264C0070E72200012338000899099D1A32A84727
:10265C00013000D18CE60A9B01330A93E7E72A008C
:10266C0038000A9B0899099EB0470130B9D17FE622
:10267C002200012338000899099E1A32B047013014
:10268C0000D175E60E9B01330E93B0E738000D9B1D
:10269C000C9A0899099EB0470130B9D168E60B9B9A
:1026AC003800EA1808993300099DA8470130B9D1C0
:1026BC005EE6129B012B02DC01231A423AD0012365
:1026CC002A0038000899099EB047013000D14FE626
:1026DC0038000D9B0C9A0899099EB047013000D127
:1026EC0046E6A06CE16C129B00221E000023FDF755
:1026FC00A5FE00281CD133006A1C013B3800089948
:10270C00099DA84701300FD132E622000123380081
:10271C000899099E1A32B047013000D128E60135DC
:10272C00129B013BAB42F0DC22000B9B5032C8E603
:10273C000025F5E72A00E1E722000123380008997B
:10274C00099E1932B047013000D111E60135E3681A
:10275C00139A9B1AAB42EFDCE8E60025F7E7C0467C
:10276C00F7B5160001938A680B690C000090934230
:10277C0000DA13002200336043321278002A01D0B1
:10278C000133336023689B0602D533680233336010
:10279C002268062315001D401A4227D0230043331C
:1027AC001B785A1E93412268920630D4220001995C
:1027BC000098089D4332A847013025D00622236893
:1027CC0000251340042B05D13368E568ED1AEB4363
:1027DC00DB171D40A3682269934201DD9B1AED189B
:1027EC000026B54220D1002010E00135E3683268A4
:1027FC009B1AAB42D2DD2200012301990098089F5D
:10280C001932B8470130F0D101204042FEBD3020D2
:10281C00E1184331087021005A1C45310978A2187F
:10282C00433202331170C1E7220001230199009851
:10283C00089F1A32B8470130E6D00136D1E70000C4
:10284C00F0B58BB006920A004332079305900492C0
:10285C000A7E0C00109B782A09D8622A0BD8002A11
:10286C0000D1BEE07C490391582A00D193E02600A8
:10287C004236327022E0100063381528F7D8FDF785
:10288C004DFC16001F00F6FFF6FFF6FFF6FF1F00CB
:10289C00F6FFF6FFF6FFF6FFA30036008300F6FF07
:1028AC00F6FFB400F6FF3600F6FFF6FF87002600B1
:1028BC001A684236111D1960136833700123A2E0A7
:1028CC0018680968021D0D060BD505681A60002DE5
:1028DC0003DA2D23049A6D4213705F4B0A2703937E
:1028EC001BE005681A604906F1D52DB2EFE70D68BB
:1028FC001968081D18602E0601D50D6803E06D06D9
:10290C00FBD50D68ADB2544B082703936F2A00D04A
:10291C0002372300002243331A706368A360002B34
:10292C0003DB042122688A432260002D02D1049E1D
:10293C00002B0CD0049E28003900FDF77FFC039B74
:10294C00013E5B5C33702B0005009F42F3D9082FCE
:10295C0009D12368DB0706D5626823699A4202DC39
:10296C003023013E3370049B9B1B2361079B21008A
:10297C0000930598069B09AAFFF7F2FE013047D198
:10298C00012040420BB0F0BD202209680A432260AE
:10299C00782232490391210045310A701968226866
:1029AC0020C9100602D4500600D5ADB21960D30769
:1029BC0002D52023134323601027002DA9D12022F8
:1029CC00236893432360A4E71A680D68101D4969B6
:1029DC00186013682E0601D5196002E06D06FBD550
:1029EC0019800023049E2361C0E71A68111D196029
:1029FC00166800213000626800F0C3F9002801D08D
:102A0C00801B6060636823610023049A1370ADE738
:102A1C003200236906990598079DA8470130AFD06D
:102A2C0023689B0715D4099BE0689842AADA180022
:102A3C00A8E72200012306990598079E1932B04792
:102A4C0001309DD00135E368099A9B1AAB42F0DC4A
:102A5C00E9E70025F7E7C046CAB60008DBB6000870
:102A6C00002310B5040003604360836081814366DA
:102A7C00C281036143618361190008225C3000F05C
:102A8C00FFF80B4B246263620A4BA3620A4BE362AE
:102A9C000A4B23630A4B9C4205D00A4B9C4202D042
:102AAC00094B9C4203D12000583000F067F910BD4F
:102ABC00F52B00081D2C0008552C0008812C000853
:102ACC00E801002050020020B802002010B5034A93
:102ADC000349044800F06CF810BDC046000000200B
:102AEC00394500080C00002041680B4B10B5040060
:102AFC00994201D001F01AFDA168084B994202D00D
:102B0C00200001F013FDE168054B994202D0200032
:102B1C0001F00CFD10BDC046E80100205002002061
:102B2C00B802002010B5094B094A04211A60094863
:102B3C000022FFF795FF012209210748FFF790FFBC
:102B4C00022212210548FFF78BFF10BD2003002045
:102B5C00D92A0008E801002050020020B802002009
:102B6C0010B5024800F00BF910BDC0462903002037
:102B7C0010B5024800F004F910BDC046290300202E
:102B8C0010B50400FFF7ECFF236A002B02D0FFF70F
:102B9C00EFFF10BD044B2362044B1B68002BF6D1D6
:102BAC00FFF7C0FFF3E7C046F52A0008200300201A
:102BBC00F7B51400002600900191A5686768013FE5
:102BCC0004D52468002CF8D13000FEBDAB89012B54
:102BDC0008D90E22AB5E013304D029000098019B6A
:102BEC00984706436835EAE770B50C000E25495F37
:102BFC0000F078F8002803DB636D1B18636570BD6B
:102C0C00A389024A1340A381F9E7C046FFEFFFFFF7
:102C1C00F8B51F008B8905000C001600DB0505D5E7
:102C2C000E23C95E0022022300F048F8A389054A4E
:102C3C0028001340A38132000E23E15E3B0000F01C
:102C4C0065F8F8BDFFEFFFFF70B50C000E25495F6E
:102C5C0000F034F8A389421C03D1054A1340A38128
:102C6C0070BD802252011343A3816065F8E7C04612
:102C7C00FFEFFFFF10B50E23C95E00F00DF810BD7D
:102C8C0003008218934200D1704719700133F9E7A1
:102C9C00004870474C010020002370B5064D04001D
:102CAC0008002B6002F08DFC431C03D12B68002B19
:102CBC0000D0236070BDC0462403002070B5040012
:102CCC00080011001A000023054D2B6002F09AFC3D
:102CDC00431C03D12B68002B00D0236070BDC04671
:102CEC002403002070B50400080011001A00002312
:102CFC00054D2B6002F02CFC431C03D12B68002BE0
:102D0C0000D0236070BDC0462403002070B50400C1
:102D1C00080011001A000023054D2B6002F035FC51
:102D2C00431C03D12B68002B00D0236070BDC04620
:102D3C002403002070B500260C4C0D4D641BA41010
:102D4C00A64209D1002608F06DFC0A4C0A4D641B02
:102D5C00A410A64205D170BDB300EB5898470136BC
:102D6C00EEE7B300EB5898470136F2E7F0C00008E5
:102D7C00F0C00008F4C00008F0C0000870477047AD
:102D8C007047C9B28218904201D100207047037875
:102D9C008B42FBD00130F6E7F0B502690B6989B0C4
:102DAC000700049100209A4269DB013B9C000193CF
:102DBC000B00143306931B1905933B001433039338
:102DCC001C19059B26681D68300001352900FDF78C
:102DDC00AFF90290AE4229D3069B00269C46039D78
:102DEC000696624608CA28689446029A99B25143DC
:102DFC001B0C534389190A0C9B1807931E0C069B3A
:102E0C0082B2D2186B4689B29B8B521A010CC91A2A
:102E1C001314CB18191492B21B04134308C5059B49
:102E2C0006916345DDD22368002B30D0380004991D
:102E3C0001F0DEF9002821DB38000026029B049CFF
:102E4C000133029314301434036802CC9DB2AD19D3
:102E5C008AB2AA1A090C1B0C5B1A11145B181E14EB
:102E6C0092B21B04134308C0059BA342ECD2019BF6
:102E7C00039A9B00D3181A68002A15D0029809B03F
:102E8C00F0BD2368002B06D1019B013B0193039BF2
:102E9C00043CA342F5D3019B3B61C7E71A68002AA7
:102EAC0006D1019A013A0192039A043B9A42F5D356
:102EBC00019B3B61E2E70000F0B514001D00C66900
:102ECC009DB008940995259F0490002E0FD11020D9
:102EDC0000F04AFE049B021ED86104D1EF21C64BC0
:102EEC00C64801F06BFB466086600660C660049BBA
:102EFC00DB69196800290BD05A68012393404A609A
:102F0C008B60049800F032FF0022049BDB691A608E
:102F1C00002D1EDA01233B606B005B080993099FAF
:102F2C00B74BB74A3B40934216D1B64B249A136029
:102F3C003B031B0B234301D100F0B5FDB24B269A8A
:102F4C000693002A02D0B14B269A136006981DB046
:102F5C00F0BD00233B60E2E7089A099B10921193A5
:102F6C001098119900220023FDF768FA061E09D06B
:102F7C000123249A1360A64B0693269B002BE5D0C5
:102F8C00A44BE1E71AAB01931BAB00930498109A86
:102F9C00119B01F0E1F97A000590520D00D17BE014
:102FAC00119B179619039C4B090B0B439B49571804
:102FBC001098119919000022994BFEF789FC994A37
:102FCC00994BFEF7C3F9994A994BFDF765FA040042
:102FDC0038000D00FFF752F8964A974BFEF7B6F9FA
:102FEC0002000B0020002900FDF756FA04000D002A
:102FFC00FFF70EF800220390002320002900FDF7B4
:10300C0023FA00280BD00398FFF738F82B00220086
:10301C00FDF714FA43425841039B1B1A03930123F7
:10302C001693039B162B10D810981199039A834B67
:10303C00D2009B181A685B68FDF706FA002847D087
:10304C00039B013B03930023169300221A9B0A92C5
:10305C00DB1B5A1E3ED50122D31A0A9300230C9374
:10306C00039B002B38DB039A0C9B944663440C9314
:10307C00002313920D93229B0124092B67D8052B57
:10308C0002DD0024043B2293229B981E032867D860
:10309C00FDF73AF82B3A385B1B9B1A9EF618684BD7
:1030AC00F218202A0FDD40239B1A9F40654B3800F5
:1030BC00F318DC402043FFF711F80122624B771E16
:1030CC00CB18179276E7202320009B1A9840F2E742
:1030DC001690BAE70C92C3E70A9B039A9B1A0A93C1
:1030EC0053420D9300231393C5E700230F93239BA7
:1030FC000B930793002B13DC01231A000B930793FC
:10310C0023920DE00123F1E70023239A0F939446B9
:10311C00039B63440B9301330793002B00DC0123C7
:10312C00049A0021D0690422150014359D421BD944
:10313C004160049800F0D6FD0690002817D1B0210C
:10314C00424B2E48069AFF31CBE60123DDE70023E4
:10315C000F942293013B0B93079300221333CFE779
:10316C0001230F93023BF6E701315200DCE7049B8D
:10317C00069ADB691A60079B0E2B00D9E5E0002C40
:10318C0000D1E2E0039B002B64DD0F21039A2B4B53
:10319C000A40D2009B181E685F68039B02241D1115
:1031AC00DB050AD52A4B0D401A6A5B6A10981199F7
:1031BC00FDF7D2FC089009910134254B0E93002D9C
:1031CC0008D10898099932003B00FDF7C5FC08901E
:1031DC0009915AE001231D4209D0E4180E9B3000DE
:1031EC001A685B683900FEF7B1F806000F000E9BF9
:1031FC006D100833E2E7C046F9B6000810B70008B6
:10320C000000F07F0F270000F5B60008F8B60008A4
:10321C00C8B60008C9B600080000F03F01FCFFFF6B
:10322C000000F83F61436F63A787D23FB3C8608B40
:10323C00288AC63FFB799F501344D33F00B800083F
:10324C003204000012040000000010FE68B70008F1
:10325C00D8B70008039B0224002B16D010981199A4
:10326C000F225D422A40DD4BD2009B181A685B6826
:10327C00FEF76CF80127002308900991D84E2D1108
:10328C00002D00D091E0002BA1D1089E099F169B28
:10329C00002B00D194E0002230003900D14BFDF717
:1032AC00D3F8002800D18BE0079B002B00D187E0DE
:1032BC000B9B002B45DD039B0022013B0E93300042
:1032CC00C94B3900FEF742F8089009910B9B013469
:1032DC002000089E099F1293FEF7D0FE32003B009F
:1032EC00FEF734F80022C14BFDF7D6F8C04A149013
:1032FC001591149B159C944608930994159B634453
:10330C0018930993129B002B5ED10022B94B30000D
:10331C003900FEF7DDFA089A189B04000D00FDF742
:10332C00A7F8002800D0B3E2B3481599844661444D
:10333C000B0020002900089AFDF786F8002800D021
:10334C00A3E2109B119C089309941B9B002B00DAA1
:10335C0079E1039A0E2A00DD75E1A04BD2009B188F
:10336C001E685F68239B002B00DBE5E0079B002BAE
:10337C0000DDE1E000D088E20022300039009D4BF6
:10338C00FDF7E4FF089A099BFDF77CF8079E3700D0
:10339C00002800D05FE2069B069A01330893312384
:1033AC001370039B013303935AE23D4205D03268FC
:1033BC007368FDF7CBFF3B0001346D1008365FE7F7
:1033CC00039B0E93079B83E7129A844B013AD2001E
:1033DC000F999B18089C099D1A685B68002951D0AD
:1033EC0000208649FDF7B8FB22002B00FEF770FA8F
:1033FC00069A040094460D00069B1493129B63449A
:10340C00189339003000FEF703FE1290FEF736FEDB
:10341C0002000B0030003900FEF75AFA149B149A84
:10342C0001330893129B06003033137022002B00DB
:10343C000F00FDF709F8002874D132003B00002082
:10344C006849FEF745FA22002B00FCF7FDFF002827
:10345C0000D0D7E0189B089A934200D171E7002264
:10346C0020002900604BFDF771FF5F4B04000D003D
:10347C00300039000022FDF769FF089B06000F00A1
:10348C001493BEE720002900FDF760FF069A069B07
:10349C0094460893129B1490159163441993300031
:1034AC003900FEF7B5FD1890FEF7E8FD02000B00A1
:1034BC0030003900FEF70CFA189E089B3036199A2A
:1034CC001E70013304000D00089393422DD1149803
:1034DC001599069A129B9446634400220893474B15
:1034EC00FCF7DAFF02000B0020002900FCF7C0FFFC
:1034FC00002800D086E0149A159B00203F49FEF767
:10350C00E7F902000B0020002900FCF79DFF0028C2
:10351C0000D116E7089B1A00013A08921278302A5B
:10352C00F8D008930E9B039346E000222E4BFDF738
:10353C000DFF06000F00B2E7069B069A0A93079B45
:10354C00089C099D013B9B180B9332003B0020000B
:10355C002900FDF701FBFEF75BFD0790FEF78EFDE2
:10356C0032003B00FDF7F2FE02000B0020002900A8
:10357C00FEF7AEF90A9B1A0001320A920892079ADA
:10358C0030321A700B9A9A424FD102000B00FCF7A2
:10359C0083FF32003B0004000D00FCF769FF00289C
:1035AC002ED132003B0020002900FCF747FF0028F9
:1035BC0002D0079BDE0723D40599049800F0D6FBB4
:1035CC000023089A1370039B249A01331360269BE3
:1035DC00002B00D1BAE4089A1A60B7E400B80008CE
:1035EC00D8B700080000F03F0000244000001C4049
:1035FC000000C0FC000014400000C07C0000E03F54
:10360C00039B0E93089B0893013B1A78392A08D127
:10361C00069A9A42F7D10E9A069901320E923022EE
:10362C000A701A7801321A707CE70022A94BFDF758
:10363C008DFE0022002304000D00FCF7FFFE002885
:10364C0000D182E7B8E70F9F0D9D0A9C002F12D086
:10365C00229A012A6EDC179A002A65D09E4A9B1882
:10366C000A9A0121D2180A920C9A0498D3180C9336
:10367C0000F02CFC0700002C0ED00C9B002B0BDD5B
:10368C000C9A2300944200DD13000A9AE41AD21A11
:10369C000A920C9AD31A0C930D9B002B1ED00F9BE5
:1036AC00002B5CD0002D10DD39002A00049800F0AE
:1036BC00D5FC059A01000700049800F01FFC0600D9
:1036CC000599049800F052FB05960D9B5A1BAB42D2
:1036DC0004D00599049800F0C1FC059001210498D0
:1036EC0000F0F4FB139B0600002B3ADD1A000100DE
:1036FC00049800F0B3FC229B06000025012B38DC5B
:10370C000025089BAB4230D1099B1B03AB422CD14B
:10371C00724B099A134228D00A9B013501330A9344
:10372C000C9B01330C9320E036231A9A0D9D0A9CB6
:10373C009B1A95E7079B5D1E0D9BAB4207DB5D1B40
:10374C00079B0A9C002B8BDAE41A002388E70D9B5D
:10375C00139AEB1AD3180D9513930025F0E70D9AD5
:10376C00B7E7229B0025012BCADD139B0120002B00
:10377C0008D0336903339B00F318586800F05EFBE4
:10378C002023181A0C9B181802001F231A401842E9
:10379C0047D001339B1A042B3FDD1C239B1A0A9A3A
:1037AC00E418D2180A920C9AD3180C930A9B002B8B
:1037BC0005DD1A000599049800F0ACFC05900C9BF3
:1037CC00002B05DD31001A00049800F0A3FC060064
:1037DC00169B002B27D03100059800F009FD00281E
:1037EC0021DA039B0A22013B0393059900230498D9
:1037FC0000F0E0FA0F9B0590002B00D15DE1002357
:10380C0039000A22049800F0D5FA0B9B0700002B14
:10381C0049DC229B022B0EDC45E0042BC6D01C336A
:10382C00BDE71300FBE7079B002B36DC229B022B2A
:10383C0033DD079B0B930B9B002B0CD13100052226
:10384C00049800F0B7FA06000100059800F0D0FCCF
:10385C00002800DD9FE5239BDB430393069B089325
:10386C0000253100049800F081FA002F00D1A3E666
:10387C00002D05D0BD4203D02900049800F076FA43
:10388C003900049800F072FA96E600263700E2E759
:10389C000E9B129E039337007DE50F9B002B00D1EE
:1038AC00C3E0079B0B93002C05DD39002200049824
:1038BC0000F030FC07003800002D24D07968049803
:1038CC0000F010FA041E11D12200054B05480649E0
:1038DC00FFF707FB00002440330400000000F07FDA
:1038EC0068B7000810B70008EF02000039003A6909
:1038FC000C31023292000C3000F056FE01222100F5
:10390C00049800F007FC069B0B9A0793013B9B184D
:10391C0001223D0007000E93089B13400D933100CC
:10392C000598FFF739FA290004000B90059800F070
:10393C005FFC3A000C903100049800F075FC0122F9
:10394C00C368303408900A92002B04D1010005980A
:10395C0000F04EFC0A900899049800F007FA079BB7
:10396C000A9A01330893229B13430D9A134309D1EE
:10397C00392C22D00C9B002B01DD0B9C3134079B86
:10398C001C706EE70C9B002B04DB229A13430D9AE0
:10399C0013431ED10A9B002BF1DD059901220498DB
:1039AC0000F0B8FB3100059000F022FC002802DC8E
:1039BC00E5D1E307E3D5392CDFD13923079A13700E
:1039CC00089B0893013B1A78392A63D001321A708C
:1039DC0047E70A9B002B03DD392CEED00134CEE7F0
:1039EC00079B079A1C700E9B93423ED000230A2221
:1039FC000599049800F0DEF9002305900A222900AD
:103A0C000498BD4206D100F0D5F905000700089BCB
:103A1C00079384E700F0CEF93900050000230A2251
:103A2C00049800F0C7F90700F1E7079B0B930025FA
:103A3C0031000598FFF7B0F9069B303058550B9BB9
:103A4C0001350400AB4207DD00230A2205990498D6
:103A5C0000F0B0F90590EBE70B9A0123002A00DD8A
:103A6C0013000025069AD31808930599012204988F
:103A7C0000F050FB3100059000F0BAFB00289FDCF1
:103A8C0001D1E4079CD4089B0893013B1A78302A97
:103A9C00FAD0E6E6069A9A4293D1039B013303933C
:103AAC0031231370DDE6094B269A0693084B002A46
:103ABC0001D0FFF749FAFFF749FA0B9B002BB6DC54
:103ACC00229B022B00DDB6E6B1E7C046ECB600083F
:103ADC00F4B6000870B50500002910D00C1F23683F
:103AEC00002B00DAE418280000F0ECF81D4A1368EB
:103AFC00002B05D163601460280000F0EBF870BD5A
:103B0C00A34208D9206821188B42F3D119685B684D
:103B1C0009182160EEE71A005B68002B01D0A34264
:103B2C00F9D911685018A0420BD120680918501807
:103B3C0011608342E0D118685B68411811605360D2
:103B4C00DAE7A04202D90C232B60D5E720682118B4
:103B5C008B4203D119685B6809182160636054605B
:103B6C00CAE7C0462C03002010B5034B01001868AF
:103B7C0000F026F810BDC0465800002070B50F4E5E
:103B8C000D0031680400002902D100F0FBFC30600C
:103B9C002900200000F0F6FC431C0AD00323C51CAE
:103BAC009D43A84207D0291A200000F0EBFC0130FD
:103BBC0001D101256D42280070BDC04630030020A4
:103BCC00F7B50322CB1C9343083306001F000C2BC4
:103BDC0038D20C27B94237D8300000F073F8384B84
:103BEC0000931B681C00002C33D139003000FFF708
:103BFC00C5FF0400431C5ED1009B1C682500002DF2
:103C0C004ED1002C51D023682900E31830000193C9
:103C1C0000F0B8FC019B834247D123683000FF1AA7
:103C2C003900FFF7ABFF01303FD02368DB1923606D
:103C3C00009B1B68002B40D05A68A24233D1002253
:103C4C005A6014E0002BC5DA0C23002533602800E1
:103C5C00FEBD2168C91B20D40B2918D9E219276095
:103C6C00A34212D1009B1A6063681160536030004C
:103C7C00250000F02FF807220B35231D9543EA1A77
:103C8C009D42E4D05B1BA350E1E75A60ECE762680D
:103C9C00A342D5D1009B1A60E9E723006468A2E730
:103CAC002C006D68ABE71300C4E70C2330003360C5
:103CBC0000F010F8CBE72760D9E75B60FFDEC04669
:103CCC002C03002010B50248FFF759F810BDC04670
:103CDC002803002010B50248FFF752F810BDC0466B
:103CEC002803002070B5C56906000C00002D0ED10C
:103CFC001020FFF739FF021EF06104D16B21194B24
:103D0C00194800F05BFC456085600560C560F5698D
:103D1C00EB68002B13D0F369A200DB689B181868C2
:103D2C00002818D101210D00A5406A1D3000920019
:103D3C0000F062FC00280CD0446085600DE021226C
:103D4C000421300000F058FCF369E860DB68002BBC
:103D5C00E1D1002070BD02681A6000230361C360CA
:103D6C00F8E7C046F9B6000879B7000870B5C6691F
:103D7C0005000C00002E0ED11020FFF7F5FE021EE0
:103D8C00E86104D18F21094B094800F017FC46600B
:103D9C0086600660C660002C07D0EB696268DB6841
:103DAC0092009B181A6822601C6070BDF9B600085E
:103DBC0079B70008F7B50E0001900C001D0000202B
:103DCC000F6914363368013099B251431B0C5343BD
:103DDC0049190D0C5B191D0C89B21B045B1808C624
:103DEC008742EFDC002D22D0A368BB4219DC61684E
:103DFC0001980131FFF776FF061E05D13200BA217A
:103E0C000C4B0D4800F0DAFB210022690C31023218
:103E1C0092000C3000F0C8FB21000198FFF7A6FFC0
:103E2C0034003B1D9B00E3185D607B1C236120006C
:103E3C00FEBDC04668B7000879B700080300020C45
:103E4C000020824201D11B0410301A0E01D108301F
:103E5C001B021A0F01D104301B019A0F01D1023041
:103E6C009B00002B03DB01305B0000D4202070474B
:103E7C000368010007221800104013420DD0063AC7
:103E8C000020134205D10230034203D0D34010006E
:103E9C000B6070479B080B60FBE79AB2002A01D1BC
:103EAC0010201B0CDAB2002A01D108301B0A1A07A9
:103EBC0001D104301B099A0701D102309B08DA07A3
:103ECC00E9D401305B08E6D12020E2E710B50C0004
:103EDC000121FFF707FF002807D14621054C0200FE
:103EEC00054B2000FF3100F069FB012344610361A5
:103EFC0010BDC04679B7000868B70008F0B51500CA
:103F0C000A692B690C008BB09A4201DA2C000D0067
:103F1C0027692E696168BB190393A368BA19934288
:103F2C0000DA0131FFF7DEFE0290002806D1B12144
:103F3C00484B4948029A490000F040FB029B002282
:103F4C0014339C46BB199B00634404936346049949
:103F5C008B422AD32300BF00143314350893B600C8
:103F6C00DB190593AB190993042306932300059AD7
:103F7C00153301959A4205D3131B153B9B0801334E
:103F8C009B000693019B099A934210D3039B002B31
:103F9C0005DD049B043B04931B68002B56D0029B4D
:103FAC00039A18001A610BB0F0BD04C3CFE7019B54
:103FBC00186880B200281ED067460025089E02CEE5
:103FCC003B6807938BB243431A006B469B8BD31809
:103FDC005B190D0C4543079A110C69181A0C8A18B9
:103FEC009BB2150C12041A43059B04C7B342E6D8C6
:103FFC006346069A9D50019B1868000C20D06346BE
:10400C002500614600271B6814352A680E6892B299
:10401C004243360C9219D21916049BB21E430E6001
:10402C0040CD4B68360C46439BB2120CF3189B18D0
:10403C00059A1F0C0431AA42E7D8624606995350E0
:10404C00019B0433019304239C449BE7039B013B9A
:10405C0003939BE768B7000879B70008F7B503230B
:10406C00150007000E001A401D4208D02549013AE0
:10407C009200525800233100FFF79CFE0600AD1051
:10408C003DD0FC69002C0FD11020FFF76DFD021EF6
:10409C00F86105D1B4211C4B1C48FF3100F08EFA9D
:1040AC00446084600460C460FB699C680193002CCC
:1040BC0008D138001649FFF709FF019B04009860EE
:1040CC000023036001231D420AD031002200380076
:1040DC00FFF714FF310001903800FFF747FE019EF7
:1040EC006D100CD02068002807D122002100380068
:1040FC00FFF704FF0023206003600400E2E73000B8
:10410C00FEBDC046C8B80008F9B6000879B700086B
:10411C0071020000F0B50C0017002369551187B02F
:10412C00EB180293013301934968A3680490019A38
:10413C00934210DB0498FFF7D5FD00230200060024
:10414C001900143298420CD1DF313200264B27482B
:10415C00FF3100F033FA01315B00E8E798001150B1
:10416C000133AB42FADBEB43DB171D401F2123006D
:10417C003800AD005519226914339200084084466A
:10418C009A180F422AD00131091A05910021039582
:10419C0067461868B8400843039901C10391059814
:1041AC0002CBC1409A42F3D820001530042382423E
:1041BC0004D3131B153B9B0801339B00E9500029CA
:1041CC0002D0029B02330193019B0498013B210016
:1041DC003361FFF7CBFD300007B0F0BD02CB02C559
:1041EC009A42FBD8F0E7C04668B7000879B70008D8
:1041FC0030B50B6904690200E01A9C420ED11432EE
:10420C009B0014311400C918D218043A04391568EB
:10421C000B689D4203D001209D4203D330BD9442D4
:10422C00F3D3FBE74042F9E7F0B50E0007001100AD
:10423C00300087B01400FFF7DBFF051E10D1010022
:10424C003800FFF74FFD021E04D13F4B3F48404959
:10425C0000F0B4F9012345610361100007B0F0BD13
:10426C0001230193002804DB230034001E000023EB
:10427C00019338006168FFF735FD021E03D1324B04
:10428C0032483449E4E7019B0027C36020691434A9
:10429C008300E31821000194340002933369143431
:1042AC009B00E3180393130014339C46059304916D
:1042BC00049B02CC20CB0493ABB2DF198BB2FB1A5C
:1042CC00090C2D0C6D1A191469189BB20F140904E2
:1042DC001943634602C39C46039BA342E8D83100B2
:1042EC00039C153104238C4204D3A31B153B9B0860
:1042FC0001339B000199CD1805992E00CB189C46D3
:10430C0002998E4210D3029EE91E00248E4204D3E1
:10431C0031000331491B89088C001B19043B1968B7
:10432C0000290FD0106198E702CE8CB2E4190F0C63
:10433C0021147918A4B20F1409042143644602C451
:10434C00A446DDE70138E9E768B7000879B700084B
:10435C003702000045020000F7B5012114001D00D2
:10436C00089FFFF7BFFC061E05D13200244B2548E1
:10437C00254900F023F92B036D001B0B6D0D25D186
:10438C000193002C28D068460094FFF771FD019B27
:10439C00009900281ED020221C00121A94402200E2
:1043AC00C3400A4372610193019CB461631E9C413A
:1043BC0001343461002D17D03524144BED182D1811
:1043CC003D60099B241A1C603000FEBD8022520304
:1043DC001343D5E77161E7E701A8FFF749FD019B9E
:1043EC00012473612030E4E7094BC018094B386095
:1043FC00E3189B00F3185869FFF720FD6401E0E710
:10440C0068B7000879B700080F030000CDFBFFFF69
:10441C00CEFBFFFFFFFFFF3FF7B58B8905000C00BC
:10442C001A075CD44A68002A04DC0A6C002A01DCF6
:10443C000020FEBDE76A002FFAD0002280202E68F3
:10444C002A601A004001216A0240034234D0606D98
:10445C00A3895B0706D56368C01A636B002B01D078
:10446C00236CC01A020000232800E76A216AB847AF
:10447C00A289431C06D129681D292CD82A4B0B4133
:10448C00DB0728D40023636023692360D20405D59D
:10449C00431C02D12B68002B00D16065616B2E6030
:1044AC000029C5D023004433994202D02800FFF7DD
:1044BC0011FB00206063BCE701232800B847431CB4
:1044CC00C6D12B68002BC3D01D2B01D0162B01D1CC
:1044DC002E60ADE7A28940231343A381A9E70E699F
:1044EC00002EA5D00F680E60BA1B019200229B070C
:1044FC0000D14A69A260019B002B99DDA36A3200AE
:10450C001F002800019B216AB847002806DC4023C5
:10451C000120A28940421343A3818AE7019B3618EC
:10452C001B1A0193E7E7C046FEFFBFDF0B6970B5AE
:10453C0005000C00002B02D10025280070BD0028BE
:10454C0004D0036A002B01D1FEF71AFB0C22A35EE8
:10455C00002BF1D0626ED20704D49B0502D4A06D5F
:10456C00FEF70DFC28002100FFF756FF636E0500D7
:10457C00DB07E2D4A3899B05DFD4A06DFEF700FC1A
:10458C00DBE70000002370B5064D040008002B602B
:10459C0001F044F8431C03D12B68002B00D023609E
:1045AC0070BDC04624030020002310B59A4200D1F0
:1045BC0010BDCC5CC4540133F8E700007FB5140087
:1045CC001A00094B05001B680E00D868074B002C1D
:1045DC0001D1074B1C000749019302942B00009654
:1045EC0000F056F800F064F858000020DEB800081F
:1045FC0019B90008EBB8000870B50B0C150C002BA2
:10460C001ED1002D0CD189B294B24C432100FFF77E
:10461C00D7FA051E1BD022000021FEF731FB16E055
:10462C002B1C0C1C89B292B24A43A1B29CB24C43D3
:10463C00130CE418230C07D1240492B21443E5E7BD
:10464C00002D01D1141CEDE70C230025036028007C
:10465C0070BD82B0002900D101A9101E06D0002B1C
:10466C0006D013780B601078431E984102B0704747
:10467C0002204042FAE70300081E05D0FF2A04D9A5
:10468C008A2201201A604042704701200A70FBE721
:10469C000EB417B5054C05AB04CB01002068019393
:1046AC0000F034F81EBC08BC03B0184758000020BA
:1046BC00062010B500F02AFA012000F03DFF9368A7
:1046CC0010B5013B9360002B04DA9469A34207DB1D
:1046DC000A2905D01368581C10601970080010BD09
:1046EC0000F030F90100F9E7F8B506000F001400EE
:1046FC00D518AC4201D1002007E021783A003000F7
:10470C00FFF7DDFF0134431CF3D1F8BDF0B5A1B0C8
:10471C000F0015001E000390002804D0036A002B24
:10472C0001D1FEF72DFA7B6EDB0705D4BB899B0507
:10473C0002D4B86DFEF723FBBB891B0702D53B697E
:10474C00002B13D13900039800F03EF900280DD04E
:10475C007B6EDB0703D50120404221B0F0BDBB8945
:10476C009B05F8D4B86DFEF70BFBF4E7002308ACFF
:10477C006361203363761033A37607962E0033786B
:10478C00002B01D0252B48D1731B0593AE420BD0C7
:10479C002A0039000398FFF7A7FF013000D1AFE0E2
:1047AC006369059A9B1863613378002B00D1A7E0ED
:1047BC00012200235242626004A954325218751C23
:1047CC002360E360A3601370A365594B05221800A6
:1047DC0029780593FEF7D5FA6E1C00281FD12268A4
:1047EC00D30604D5532304A95B1820211970130791
:1047FC0004D5532304A95B182B2119702B782A2B71
:10480C0016D02E0000210A20E3683278751C303A4D
:10481C00092A4ED9002911D117E00136AFE7059BC3
:10482C002268C01A01238340134335002360CCE770
:10483C00079B191D1B680791002B01DB0B9304E0F0
:10484C005B42E36002231343236033782E2B0AD19F
:10485C0073782A2B35D1079B02361A1D1B680792D9
:10486C00002B2BDB0993334D032228003178FEF704
:10487C0088FA002806D04023401B8340226801366A
:10488C0013432360317806222B48751C2176FEF7E2
:10489C0078FA002843D0294B002B25D10722079BFF
:1048AC0007339343083307936369049A9B18636136
:1048BC0064E743432E0001219B18A6E701235B42CA
:1048CC00D0E700230A201A00013663603178751C8A
:1048DC003039092903D9002BC5D00992C3E74243CB
:1048EC002E0001235218F1E707AA009221003A008A
:1048FC00134B0398FDF7DEFC0490049B0133D3D1DA
:10490C007B6EDB0705D4BB899B0502D4B86DFEF723
:10491C0037FABB895B0600D51DE70D981DE707AA82
:10492C00009221003A00064B0398FDF789FFE3E75C
:10493C001BBA000821BA000825BA0008C1220008D9
:10494C00F5460008F8B506000D001400002804D048
:10495C00036A002B01D1FEF713F9A369A360A389A5
:10496C001B0728D52369002B25D023692068EFB2BB
:10497C00C01A6369EDB2834205DC21003000FFF7F9
:10498C00D5FD00281DD1A3680130013BA36023682D
:10499C005A1C22601F706369834204D0A389DB0711
:1049AC0007D50A2D05D121003000FFF7BFFD0028E7
:1049BC0007D12800F8BD2100300000F005F80028D0
:1049CC00D3D001256D42F4E7304B70B50500186863
:1049DC000C00002804D0036A002B01D1FEF7D0F89C
:1049EC000C23E25E93B2110723D4D90607D4092312
:1049FC0001202B6037331343A381404270BD5B070A
:104A0C0013D5616B002908D023004433994202D09E
:104A1C002800FFF75FF8002363632422A3899343E4
:104A2C00A38100236360236923600823A2891343B5
:104A3C00A3812369002B0BD1A0218022A38989009B
:104A4C0092000B40934203D02100280000F0D6F8CE
:104A5C000C22A35E01201A0099B2024003420FD02F
:104A6C000022A26062695242A26100202269824245
:104A7C00C4D10906C2D540221343A3810138BDE736
:104A8C00880700D46269A260EFE7C0465800002096
:104A9C0010B5884202D98B18984203D3002307E043
:104AAC008B5C8354013AFBD210BDCC5CC4540133F3
:104ABC009A42FAD1F8E770B504000D001F2904D909
:104ACC00162303600120404270BDC36B002B04D041
:104ADC008A009B181A68002A08D1200000F032F8CE
:104AEC002A000100200000F01BF8EDE70020012A4D
:104AFC00EAD0511C03D1162301302360E4E70024D3
:104B0C0028001C6090472000DEE7000010B5034B26
:104B1C0001001868FFF7CFFF10BDC04658000020F9
:104B2C00002370B5064D0400080011002B6000F046
:104B3C00F3FC431C03D12B68002B00D0236070BD09
:104B4C002403002010B500F0E1FC10BDF7B5070000
:104B5C000E001400002905D11100FFF731F80500F3
:104B6C002800FEBD002A03D1FEF7B4FF2500F7E7AD
:104B7C0000F0A6F80190844203D835004308A34204
:104B8C00EED321003800FFF71BF8051EE8D0019B7F
:104B9C0022009C4200D91A0031002800FFF704FDC6
:104BAC0031003800FEF796FFDAE7000070B50E0012
:104BBC001D000E23C95E140096B000290CDAB289D0
:104BCC008023110019401A4213D00021403B0020D1
:104BDC002960236016B070BD6A4600F04DF80028BD
:104BEC00EDDBF02301991B021940034BC9184B4212
:104BFC0059418023DB00EAE700E0FFFFF7B502260E
:104C0C008B8905000C00334206D023004733236008
:104C1C00236101236361F7BD6A4601ABFFF7C6FF51
:104C2C00009907002800FEF7CBFF002808D10C22C2
:104C3C00A35E9A05EFD4032293431E43A681E4E7B7
:104C4C008023A28920601343A381009B20616361B0
:104C5C00019B002B0CD028000E23E15E00F01EF807
:104C6C00002805D00323A2899A43023B1343A38156
:104C7C00A3893B43A381CEE7002370B5064D040006
:104C8C00080011002B6000F0A6FC431C03D12B681C
:104C9C00002B00D0236070BD24030020002370B5CE
:104CAC00064D040008002B6000F0A3FC431C03D14C
:104CBC002B68002B00D0236070BDC046240300205D
:104CCC000B1F1B68181F002B01DA0B58C0187047FC
:104CDC0080B500AFC046BD4680BD80B500AFFEE7D5
:104CEC0080B500AFFEE780B500AFC046BD4680BDC5
:104CFC0080B500AFC046BD4680BD80B500AFC04694
:104D0C00C046BD4680BD000080B582B000AF786063
:104D1C00084B5B6D7A68120CD2431A4011007B6809
:104D2C001B041A0C034B0A435A65C046BD4602B01D
:104D3C0080BDC0460010024080B582B000AF7860E4
:104D4C00084B5B6D7A68120C1204D2431A401100A6
:104D5C007B681A04034B0A435A65C046BD4602B031
:104D6C0080BDC0460010024080B584B000AF7860B2
:104D7C00074B996B064B7A680A439A63044B9B6BFF
:104D8C007A681340FB60FB68C046BD4604B080BD2A
:104D9C000010024080B584B000AF7860074BD96B2F
:104DAC00064B7A680A43DA63044BDB6B7A68134070
:104DBC00FB60FB68C046BD4604B080BD00100240DD
:104DCC0080B584B000AF7860074B196C064B7A68DD
:104DDC000A431A64044B1B6C7A681340FB60FB6833
:104DEC00C046BD4604B080BD0010024080B584B002
:104DFC0000AF7860074B596B064B7A680A435A63CD
:104E0C00044B5B6B7A681340FB60FB68C046BD4685
:104E1C0004B080BD0010024080B582B000AF786055
:104E2C00044B1968034B7A680A431A60C046BD46A6
:104E3C0002B080BD0000014080B582B000AF786048
:104E4C007B68022252421A61C046BD4602B080BD48
:104E5C0080B500AF0120FFF7B3FF80235B0518007E
:104E6C00FFF798FFC023DB001800FFF7D5FF00F019
:104E7C00ADFAC0239B051800FFF746FF8023DB0328
:104E8C001800FFF759FF80231B011800FFF798FF4C
:104E9C000120FFF77FFF0220FFF77CFF80231B021E
:104EAC001800FFF78DFF80239B021800FFF772FF9D
:104EBC000120FFF759FF80239B031800FFF76AFFBF
:104ECC008023DB011800FFF765FF0120FFF78EFF41
:104EDC000220FFF78BFF0820FFF788FF00F0CFFDC3
:104EEC0000F07AFE01F0F6F901F0B6FD01F01CFEBF
:104EFC0000F04CFF00F086FE01F01AFF02F022FDDC
:104F0C0002F07CFB0A2000F0A3FAFEE780B582B029
:104F1C0000AF384B1800FFF78FFF00F067FE03005F
:104F2C007B60354B1B68002B02D0032B03D013E0A6
:104F3C0001F05EFE10E001F06FFE03001A002F4B33
:104F4C001A602E4B1B689BB2180001F09FFE0300E9
:104F5C001A002A4B1A60C046274B1B68FF21180009
:104F6C00FBF76CF90B00DBB200220021002002F0F1
:104F7C0007F8214B1B68FF211800FBF75FF90B00AA
:104F8C00DAB200230021012001F0FAFF1A4B1B6852
:104F9C00FF211800FBF752F90B00D9B200230022B5
:104FAC00022001F0EDFF01F05FFF154B0921180005
:104FBC0001F038FA7A681349134B180006F0AAF975
:104FCC00114B0921180001F02DFA0C4B1B6818002D
:104FDC0000F034FE084B1B685A1C074B1A60064B3A
:104FEC001B680A2B02D9044B00221A60C046BD462E
:104FFC0002B080BD002000403403002038030020A4
:10500C0048B6000854B600083C03002080B582B0B6
:10501C0000AF0200FB1D1A70FB1D1B787F2B09D8FB
:10502C00FB1D1B781A001F231A40044B01219140D1
:10503C000A001A60C046BD4602B080BD00E100E027
:10504C0090B583B000AF02003960FB1D1A70FB1DD8
:10505C001B787F2B28D82F4AFB1D1B785BB29B0833
:10506C00C0339B009B58FA1D1278110003220A4092
:10507C00D200FF2191400A00D2431A4011003B6834
:10508C009B01FF221A40FB1D1B78180003230340D1
:10509C00DB009A401F48FB1D1B785BB29B080A4340
:1050AC00C0339B001A5031E01B4AFB1D1B781900C2
:1050BC000F230B40083B9B0806339B00D31804338B
:1050CC001B68FA1D1278110003220A40D200FF213E
:1050DC0091400A00D2431A4011003B689B01FF2209
:1050EC001A40FB1D1B78180003230340DB009A4079
:1050FC000948FB1D1B781C000F232340083B9B0811
:10510C000A4306339B00C31804331A60C046BD46DD
:10511C0003B090BD00E100E000ED00E080B588B088
:10512C0000AFF860B9607A60FB6807221340FB613E
:10513C00FB690722D31A022B00D90223BB61FB693E
:10514C000233062B02D9FB69053B00E000237B618F
:10515C0001235A42BB699A401300DB43BA681A40D8
:10516C007B699A40012359427B6999400B00DB43D0
:10517C0079680B4013431800BD4608B080BD000091
:10518C0080B500AF044B1A68034B8021C9020A4357
:10519C001A60C046BD4680BD0010024080B500AF0D
:1051AC00044B1A68034B802149020A431A60C0461B
:1051BC00BD4680BD0010024080B500AF074B1A6899
:1051CC0080239B021A4080239B029A4201D1012327
:1051DC0000E000231800BD4680BDC0460010024010
:1051EC0080B582B000AF7860064B9B680722934372
:1051FC001900044B7A680A439A60C046BD4602B057
:10520C0080BDC0460010024080B500AF034B9B68C8
:10521C00382213401800BD4680BDC0460010024025
:10522C0080B582B000AF7860064B9B68064A13408D
:10523C001900044B7A680A439A60C046BD4602B016
:10524C0080BDC04600100240FFF0FFFF80B582B069
:10525C0000AF7860064B9B68064A13401900044B5C
:10526C007A680A439A60C046BD4602B080BDC0460B
:10527C0000100240FF8FFFFF80B500AF044B1A688F
:10528C00034B802149040A431A60C046BD4680BDC9
:10529C000010024080B500AF074B1A6880239B04B6
:1052AC001A4080239B049A4201D1012300E0002381
:1052BC001800BD4680BDC0460010024080B584B0C9
:1052CC0000AFF860B9607A603B600A4BDB680A4A51
:1052DC0013401900FA68BB681A437B681B021A4317
:1052EC003B681A43034B0A43DA60C046BD4604B020
:1052FC0080BDC046001002408C80FF1F80B500AFFF
:10530C00044BDA68034B802149050A43DA60C04636
:10531C00BD4680BD0010024080B582B000AF786001
:10532C00064B1B68072293431900044B7A680A4307
:10533C001A60C046BD4602B080BDC0460020024087
:10534C0080B500AF034B1B68072213401800BD4605
:10535C0080BDC0460020024080B582B000AF7860AE
:10536C007B681B6801221A437B681A60C046BD46E5
:10537C0002B080BD80B582B000AF78607B681B68DE
:10538C00802293431A007B681A60C046BD4602B067
:10539C0080BD80B582B000AF78607B68DB6801228D
:1053AC001A437B68DA60C046BD4602B080BD80B54A
:1053BC0082B000AF78607B685B6901221A437B681E
:1053CC005A61C046BD4602B080BD000080B500AF3A
:1053DC000220FFF7A1FFC046FFF7B2FF0300022B2C
:1053EC00FAD1FFF7CDFEFFF7D9FEC046FFF7E4FE7A
:1053FC000300012BFAD180239B05082200210320F6
:10540C00FFF75CFFFFF738FFFFF778FFC046FFF7A9
:10541C0041FF0300012BFAD10020FFF701FF02200E
:10542C00FFF7DEFEC046FFF7EFFE0300102BFAD1AC
:10543C000020FFF70BFF054B180005F029FF034B6D
:10544C00180005F059FFC046BD4680BD0090D00342
:10545C0090B589B000AF7860002200210020FFF7E2
:10546C005DFE030019001320FFF7EAFD1320FFF780
:10547C00CDFD0C243B19180014231A000021FDF754
:10548C00FFFB3B191E4A1A803B1900225A603B193C
:10549C001B88013319001B48FAF74AFE03001A0057
:1054AC007B6893420BD83B191B8801337A685343B2
:1054BC0019001448FAF73CFE03005A1E00E00022C3
:1054CC000C217B189A607B180022DA607B180E4A3C
:1054DC001900100005F0B8F90B4B1800FFF74AFF44
:1054EC00094B1800FFF755FF074B1800FFF734FF67
:1054FC00054B1800FFF75BFFC046BD4609B090BDD9
:10550C00FFC3FFFF0090D0030020004080B500AF28
:10551C0001231800BD4680BD80B582B000AF786015
:10552C00396005F017FF030016221A6001235B4255
:10553C001800BD4602B080BD80B582B000AF786067
:10554C0001235A427B6811001800FFF7E5FFFEE7C4
:10555C0080B586B000AFF860B9607A6000237B61DB
:10556C000AE000E000BF0100BB685A1CBA60CAB276
:10557C001A707B6901337B617A697B689A42F0DB34
:10558C007B681800BD4606B080BD80B586B000AF04
:10559C00F860B9607A6000237B6109E0BB685A1C33
:1055AC00BA601B78180000E000BF7B6901337B6197
:1055BC007A697B689A42F1DB7B681800BD4606B0BD
:1055CC0080BD80B582B000AF786001235B421800CB
:1055DC00BD4602B080BD80B582B000AF7860396046
:1055EC003B68802292015A6000231800BD4602B02D
:1055FC0080BD80B582B000AF786001231800BD4635
:10560C0002B080BD80B584B000AFF860B9607A603C
:10561C0000231800BD4604B080BD000080B586B0E4
:10562C0000AF7860144A154BD31A7B617B693B61E0
:10563C00134B1B68002B02D1114B124A1A60104BF2
:10564C001A687B68D3183A699A4207D205F082FE31
:10565C0003000C221A6001235B4209E0084B1B6813
:10566C00FB60074B1A687B68D218054B1A60FB6805
:10567C001800BD4606B080BD00900020000400005C
:10568C0048030020780900200D488546FFF720FBD1
:10569C000C480D490D4A002302E0D458C450043381
:1056AC00C4188C42F9D30A4A0A4C002301E0136057
:1056BC000432A242FBD3FDF73DFBFFF7C9FBFEE72B
:1056CC000090002000000020CC010020F8C0000851
:1056DC00CC01002078090020FEE780B582B000AF35
:1056EC0078607B681B6801221A437B681A60C0468D
:1056FC00BD4602B080BD80B582B000AF78607B68DB
:10570C001B68802293431A007B681A60C046BD4612
:10571C0002B080BD80B582B000AF78607B685B6AF8
:10572C001800BD4602B080BD80B586B000AFF860F1
:10573C00B9607A60BB68012B2CD0BB68042B27D0D6
:10574C00BB68102B22D0BB68402B1DD0BA688023BD
:10575C005B009A4216D0BA688023DB009A420FD0C5
:10576C00BA6880235B019A4208D0BA6880235B0236
:10577C009A4201D107230EE008230CE006230AE02D
:10578C00052308E0042306E0032304E0022302E0DF
:10579C00012300E0002317203A181370FB6818331C
:1057AC0019003B181B780E4AD35CCB183B613B6944
:1057BC001B683A1812780B498A5C110003228A4044
:1057CC00D2431A407B681B0C391809780548415C98
:1057DC008B401A433B691A60C046BD4606B080BD7B
:1057EC008CBA000898BA000880B586B000AFF86093
:1057FC00B9607A60BB68012B2CD0BB68042B27D016
:10580C00BB68102B22D0BB68402B1DD0BA688023FC
:10581C005B009A4216D0BA688023DB009A420FD004
:10582C00BA6880235B019A4208D0BA6880235B0275
:10583C009A4201D107230EE008230CE006230AE06C
:10584C00052308E0042306E0032304E0022302E01E
:10585C00012300E0002317203A181370FB6818335B
:10586C0019003B181B780E4AD35CCB183B613B6983
:10587C001B683A1812780B498A5C11000C228A407A
:10588C00D2431A407B681B0C391809780548415CD7
:10589C008B401A433B691A60C046BD4606B080BDBA
:1058AC008CBA000898BA000880B586B000AFF860D2
:1058BC00B9607A60BB68012B2CD0BB68042B27D055
:1058CC00BB68102B22D0BB68402B1DD0BA6880233C
:1058DC005B009A4216D0BA688023DB009A420FD044
:1058EC00BA6880235B019A4208D0BA6880235B02B5
:1058FC009A4201D107230EE008230CE006230AE0AC
:10590C00052308E0042306E0032304E0022302E05D
:10591C00012300E0002317203A181370FB6818339A
:10592C0019003B181B780E4AD35CCB183B613B69C2
:10593C001B683A1812780B498A5C1100F0228A40D5
:10594C00D2431A407B681B0C391809780548415C16
:10595C008B401A433B691A60C046BD4606B080BDF9
:10596C008CBA000898BA000880B586B000AFF86011
:10597C00B9607A60BB68012B2CD0BB68042B27D094
:10598C00BB68102B22D0BB68402B1DD0BA6880237B
:10599C005B009A4216D0BA688023DB009A420FD083
:1059AC00BA6880235B019A4208D0BA6880235B02F4
:1059BC009A4201D107230EE008230CE006230AE0EB
:1059CC00052308E0042306E0032304E0022302E09D
:1059DC00012300E0002317203A181370FB681B6AA0
:1059EC003A1812780A498A5C11000A228A40D2437A
:1059FC001A403B181B780649CB5C19007B688B401E
:105A0C001A43FB681A62C046BD4606B080BDC0464C
:105A1C00A4BA000880B582B000AF786039607B68AA
:105A2C009B68054A1A403B681A437B689A60C046DB
:105A3C00BD4602B080BDC046F8FFFEFF80B582B007
:105A4C0000AF786039607B685B68702293431A0002
:105A5C003B681A437B685A60C046BD4602B080BDA5
:105A6C0080B582B000AF78607B689B6880229343DE
:105A7C001A007B689A60C046BD4602B080BD90B5E6
:105A8C008DB000AF18243B19180018231A00002100
:105A9C00FDF7F6F83B1920221A603B1902225A60D6
:105AAC003B1900229A603B190022DA603B19002254
:105ABC001A613B1902225A613A19A023DB05110025
:105ACC00180004F09EFA21007B1802221A607B1841
